:100000000C9483020C94A0020C94A0020C94A00205
:100010000C94A0020C94A0020C94A0020C94A002D8
:100020000C94A0020C94A0020C94EF200C94C1211B
:100030000C940B180C94A0020C94A0020C94A00237
:100040000C94A0020C94A0020C94A0020C94A002A8
:100050000C94A0020C9472180C94A0020C94A002B0
:100060000C94A0020C94A0020C94A0020C94A00288
:100070000C94A0020C94A0020C94A0020C94A00278
:100080000C94A0020C94A0020C94A0020C94A00268
:100090000C94A0020C94A0020C94A0020C94A00258
:1000A0000C94A0020C94A0020C94A002F702FA0295
:1000B000FD020003030305030803AF06B506B906F6
:1000C000BC06C006C406C806CC06D106D506D906AD
:1000D000DD06E006E406E806EC06F006F506080E86
:1000E000080E420E420E7D0E9F0E0C100C10E50EF7
:1000F0000C108C0F8C0F00100C100C100710990FA7
:10010000990F990F990F990F990F990F990F990FAF
:10011000990F990F990F990F990F990F990FAB0F8D
:10012000B90FC00FC70FD10FA010A010B310B3109C
:10013000A910B310B310B310A010A010AF10B310DB
:10014000B310AF1026224D223B234D223B23952294
:10015000B8223B230E231D23290002510151E10047
:10016000390000001E00140004001D000100E20020
:100170001F001A0016001B0001002A0020000800C2
:100180000700060050002C0021001500090019008E
:100190004F006500220017000A00050000004A0019
:1001A000230001000000010000004B0024000100BA
:1001B00000004C0000004E0025001C000B00110048
:1001C00000004D00260018000D0010005200E30052
:1001D00027000C000E003600510028002D001200F0
:1001E0000F00370001002B002E00130033003800F1
:1001F0003400E600010002510151E500E400000076
:100200001050010001000100010000003A001E0230
:1002100020022202010001003B001F0221022302F2
:10022000010001003C002F0226022F000100010006
:100230003D00300227023000010001003E00310283
:1002400035003502000001003F0001000000010000
:10025000000001004000010000000100000001005A
:100260004100370036002402000001004200240053
:1002700021001E00010001004300250022001F0094
:100280002700010044002600230020000100010097
:100290004500250234003100010001000100010089
:1002A00001000100010000001050010001000100E8
:1002B000010000001A5C0100010050000100F6007E
:1002C0000100F900F20051000100F5000100F0000A
:1002D000F1005200F900F4000100FA00F3004F00B1
:1002E000FA0001000100010001000100000001000E
:1002F00001000100000001000000010001000100F8
:1003000000000100000001000100010001000100E7
:1003100000000100010001000100010001000100D6
:10032000A800FD00010001000100F500AA00FE0088
:10033000010001000100F400A900FF00010001001C
:100340000100F6004600010001000100010000006C
:1003500004033000000016034500720067006F00C0
:1003600044006F007800200045005A00000016038A
:100370004500720067006F0044006F0078002000A5
:1003800045005A0000000403090409026D0004013D
:1003900000A0FA0904000001030101000921110174
:1003A00000012240000705810308000A090401003A
:1003B0000103010200092111010001224D0007057E
:1003C000820308000A090402000103000000092159
:1003D000110100012236000705830308000A090401
:1003E000030001030000000921110100012239006E
:1003F000070584032000011201100100000008ED30
:10040000FE071301000102030105010906A1010510
:100410000719E029E71500250195087501810205F6
:10042000081901290595057501910295017503913A
:10043000010507190029F71500250195F8750181B7
:1004400002C005010980A1018502160100260300F2
:100450001A81002A8300751095018100C0050C09DE
:1004600001A1018503160100269C021A01002A9CA5
:1004700002751095018100C005010902A101090161
:10048000A10005091901290515002501950575012A
:10049000810295017503810105010930093115813A
:1004A000257F95027508810609381581257F9501FC
:1004B00075088106050C0A38021581257F9501759E
:1004C000088106C0C005010906A101050719E02938
:1004D000E7150025019508750181029501750881D0
:1004E0000105081901290595057501910295017508
:1004F0000391010507190029FF150026FF00950645
:1005000075088100C00011241FBECFEFDAE0DEBF06
:10051000CDBF11E0A0E0B1E0EEEAF7E402C0059043
:100520000D92A832B107D9F722E0A8E2B1E001C0EC
:100530001D92AA39B207E1F70E941B1E0C94D52325
:100540000C94000080B38C7080BB81B3836F81BB3F
:10055000089584B1807F84B985B1807F85B98AB1DF
:10056000837F8AB98BB1837F8BB93E984698089573
:10057000CF93C82F873088F5209100013091010179
:10058000232B09F047C064E670E080E40E94470432
:100590009093010180930001892BD1F464E670E00F
:1005A00082E10E949C049093010180930001892BB9
:1005B00079F481E090E001C0880FCA95EAF764E61B
:1005C00070E080950E949C0490930101809300014B
:1005D00084E690E0CF910C94F10490E0FC01379711
:1005E000E730F105B8F4EA5AFF4F0C948523209ABE
:1005F000289810C0219A29980DC0229A2A980AC0DA
:10060000239A2B9807C0529A01C0539A5B9802C054
:100610003E9A4698CF910895CF93873008F040C016
:100620008091000190910101892B09F042C064E69C
:1006300070E080E40E9447049093010180930001E0
:10064000892B11F0C0E026C064E670E083E10E94CF
:100650009C049093010180930001892B99F764E633
:1006600070E081E40E9447049093010180930001AF
:10067000892B41F784E690E00E94CC04909301011D
:100680008093000197FDDECFC82FC0951092010125
:100690001092000184E690E00E94F1048C2F0AC0C1
:1006A0009FB18FB1807F869586959370892B8095B9
:1006B00001C080E0CF9108950C94FE050E94810551
:1006C00090E090930101809300010E94A9020E9492
:1006D000A202EDE7F1E029E231E0119280E090E042
:1006E000D901A80FB91F1C92019686309105C1F758
:1006F0002A5F3F4F81E0EB38F80779F70C94C50784
:100700000E94810590E090930101809300010E9476
:10071000A9020E94A202EDE7F1E0119281E0EB381C
:10072000F807D9F7089596E0899FA001112420E0E9
:1007300030E080E0475D5E4F61E070E0FA01E20F7B
:10074000F31F9081992319F09150908307C0FB010A
:10075000022E01C0EE0F0A94EAF78E2B2F5F3F4F57
:100760002630310559F7089596E0699FB0011124AC
:1007700020E030E090E0675D7E4FAFE0AC01022EFC
:1007800002C0559547950A94E2F740FF04C0FB016B
:10079000E20FF31FA0832F5F3F4F2630310571F723
:1007A0000895CF92DF92EF92FF920F931F93CF9312
:1007B000DF938091000190910101892B91F080914C
:1007C00028018F5F8093280181110BC00E94810551
:1007D00090E09093010180930001892B11F40E9415
:1007E00015050DE711E0C4E8D1E0F12C8F2D0E9432
:1007F000B80287E0D82EDF0C8D2D0E94B8028F2D15
:100800000E949303C82E8F2D0E940C03F801908143
:10081000EC2CE094E9228C21E82A6F2D8E2D89277B
:100820000E94B403F801E1928F018D2D0E94930381
:10083000C82E8D2D0E940C039881EC2CE094E922A7
:100840008C21E82A6D2D8E2D89270E94B403E99210
:100850000E94A902F394F7E0FF12C8CF0E94C707D5
:1008600081E0DF91CF911F910F91FF90EF90DF908A
:10087000CF900895E82FF0E0E358FE4F808108956F
:1008800008951092B9008CE08093B8000895FF920B
:100890000F931F93CF93DF93F82EEB011092BC00C0
:1008A00084EA8093BC000E943D188C018091BC00BA
:1008B00087FD0EC0CF3F8FEFD807C1F30E943D18D0
:1008C000801B910B8C179D0788F38EEF9FEF2EC036
:1008D0009091B900987F983041F09091B900987F3D
:1008E000903119F08FEF9FEF21C0F092BB0084E8A8
:1008F0008093BC000E943D188C018091BC0087FD54
:100900000CC0CF3F8FEFD807C1F30E943D18801B6A
:10091000910B8C179D0788F3D8CF8091B900887F01
:10092000883111F08034F1F680E090E0DF91CF91D2
:100930001F910F91FF9008950F931F93CF93DF9313
:10094000EB018093BB0084E88093BC000E943D18BB
:100950008C018091BC0087FD0EC0CF3F8FEFD80780
:10096000C1F30E943D18801B910B8C179D0788F3E3
:100970008EEF9FEF0CC02091B900287F81E090E0BE
:10098000283211F480E090E0919581959109DF91F2
:10099000CF911F910F9108950F931F93CF93DF93E2
:1009A000EC0184E88093BC000E943D188C0180918A
:1009B000BC0087FD0EC0CF3F8FEFD807C1F30E9468
:1009C0003D18801B910B8C179D0788F38EEF9FEFCE
:1009D00003C08091BB0090E0DF91CF911F910F91F8
:1009E00008950F931F93CF93DF93EC0184E98093D5
:1009F000BC000E943D188C018091BC0084FF0EC099
:100A0000CF3F8FEFD807C1F30E943D18801B910B99
:100A10008C179D0788F38EEF9FEF02C080E090E077
:100A2000DF91CF911F910F91089556985E98259868
:100A30002D9826982E9827982F981092890010921A
:100A4000880010928B0010928A0010928D001092F4
:100A50008C00259A2D9A2FEF80E792E0215080405C
:100A60009040E1F700C00000269A2E9A2FEF80E711
:100A700092E0215080409040E1F700C00000279AAA
:100A80002F9A2FEF80E792E0215080409040E1F7CD
:100A900000C0000025982D982FEF80E792E02150AC
:100AA00080409040E1F700C0000026982E982FEF7C
:100AB00080E792E0215080409040E1F700C00000C4
:100AC00027982F9856985E9825982D9826982E98B6
:100AD00027982F98089589EA8093800089E0809371
:100AE000810024982C983F988AB18F7C8AB96E989F
:100AF000479A8BB180638BB9769A0E9415050C9446
:100B0000FC0580E290E090930101809300018091C8
:100B10008B0181110EC00E94410481E080938B0102
:100B20002FEF83ED90E3215080409040E1F700C02B
:100B3000000064E670E080E40E94470490930101A5
:100B400080930001892B09F050C064E670E080E0DA
:100B50000E949C049093010180930001892B09F06D
:100B600044C064E670E080E00E949C049093010120
:100B700080930001892BC9F564E670E08FE30E9441
:100B80009C049093010180930001892B71F584E608
:100B900090E00E94F10464E670E080E40E94470463
:100BA0009093010180930001892BF9F464E670E0D1
:100BB0008CE00E949C049093010180930001892B9A
:100BC000A1F464E670E080E00E949C04909301012F
:100BD00080930001892B49F464E670E08FE30E9462
:100BE0009C04909301018093000184E690E00E94B0
:100BF000F10480910001089508950895089581E019
:100C0000089581E008950C9401060E948E102FEF44
:100C100084E39CE0215080409040E1F700C0000058
:100C20000C949818FF920F931F93CF93DF938C012E
:100C3000FC01C081D1818091B801811113C08281F2
:100C4000882349F0CE010E94E515F82E682FCE01C9
:100C50000E94891504C0CE010E94B815F82EBE016D
:100C60008F2D04C0CE010E94E515BE010E94E00751
:100C7000EC01B8010E940306882309F47FC1B80182
:100C8000CE010E94410A882309F478C1B801CE013F
:100C90000E948D0A882309F471C1C531FCE5DF0784
:100CA00029F50E94B716382FF801228180910201A0
:100CB00090910301222371F03A7A21E009F420E0B7
:100CC00020938C01222311F065E301C069E20E94A8
:100CD0009A1709C020918C01222311F065E301C00D
:100CE00069E20E94A5170E94841648C1C6318CE5AE
:100CF000D80708F0A4C0C130ECE5DE0759F4F801CC
:100D00008281882309F43AC18091550281608093E1
:100D1000550234C1C230FCE5DF0708F478C0F801A1
:100D20008281882309F47BC00E940D17811102C0C3
:100D30000E94F3160E942A1790E090938C028093F1
:100D40008B02FE01E350FC45E231F10520F4E35A49
:100D5000FF4F0C94852380918B02816003C08091AA
:100D60008B02826080938B024BC080918B028460E7
:100D7000F9CF80918B0213C080918B028061F2CFFA
:100D800080918B028062EECF80918B028064EACFEB
:100D900080918B028068E6CF80918B0284608860AE
:100DA000E1CF80918B028E7FDDCF80918B028D7F92
:100DB000D9CF80918B028B7FD5CF80918B0213C0CE
:100DC00080918B028F7ECECF80918B028F7DCACF98
:100DD00080918B028F7BC6CF80918B028F77C2CFA1
:100DE00080918B028B7F877FBDCF90918B0297FB89
:100DF000882780F921E0822780FB97F990938B0266
:100E000080918B020E942E170E948E10B7C0C115D0
:100E1000DC4569F081E08093910180939201C801E3
:100E2000DF91CF911F910F91FF900C94FF05F80176
:100E30008281882309F4A2C00E9405069FC0C63D96
:100E4000ECE5DE0759F5F8018281882361F0109204
:100E500092010E943D189093900180938F0180E24F
:100E60000E94B80D8BC080919201882321F080E20E
:100E70000E94BF0D83C080918F01909190010E94CC
:100E80004918883C910598F780E20E94BF0D88E2DE
:100E90000E94E70C88E20E948B0D70C0C73DFCE504
:100EA000DF0708F056C0C43D8CE5D80761F5F801AE
:100EB0008281882351F0109291010E943D189093F5
:100EC0008E0180938D0182E0CBCF0E94B71685FF03
:100ED00005C081E0809391018093920180919101FE
:100EE00081110FC080918D0190918E010E9449184F
:100EF000883C910530F486E20E94E70C86E20E946D
:100F00008B0D82E0B5CFC53DDC4509F083CFF801FC
:100F1000828181119CCF0E94B71681FF05C081E0BC
:100F200080939101809392018091920181119FCFD2
:100F300080918F01909190010E944918883C910501
:100F400008F095CF87E20E94E70C87E20E948B0DA4
:100F50008ECFC93DFCE5DF0731F4F801828188239B
:100F600069F080E009C0CA3DDC4509F053CFF801C3
:100F70008281882319F082E00E94B51E80E0DF9113
:100F8000CF911F910F91FF9008950C946B050C94D5
:100F90005C03282F2F7041F0822F90E02A3010F44C
:100FA0004D9608950697089587E290E00895089574
:100FB0000C94D7070C94D80780E090E0089508952A
:100FC00096E0799FF001112494E5899FE00DF11DD1
:100FD0001124E60FF11DEE0FFF1FE85AFE4F859119
:100FE00094910895880F991F885A9E4FFC0185910E
:100FF00094910895CF93DF930E94E0070E94A10986
:10100000EC01811520E5920708F040C0811530E41D
:10101000930708F01BC1883E910508F5803E9105B5
:1010200008F08BC1883A910578F4853A910508F06B
:101030009DC08130910509F480C108F437C1843026
:10104000910508F07AC132C18D3B910508F499C031
:10105000803C910508F42AC1805C9109E9C0C11562
:1010600080E2D80758F4C11591E0D90708F065C1AE
:10107000C03FD10508F41AC1D0655FC1C11520E396
:10108000D20708F0D9C0CE019F70D2C0811535E5D6
:10109000930708F043C0C11584E5D80708F0EDC0F8
:1010A000C11592E5D90708F5C11521E5D20708F069
:1010B000D0C02C2F237081E090E002C0880F991FD0
:1010C0002A95E2F79C689E01E4E036952795EA951B
:1010D000E1F72370922BCF70C695C69530E2C39F7F
:1010E000E0011124C82BD92B28C18C2F8695869519
:1010F0009E0123703327C115D34508F0AFC090E29D
:10110000899FE001112481E090E002C0880F991FBF
:101110002A95E2F7C82BD92BDC680FC1811529E588
:10112000920780F4811538E5930708F0ABC0C1152C
:1011300086E5D80708F0BAC0CF71DD27DC2FCC27B1
:10114000D062FBC0C1159AE5D90708F4A0C0CE0152
:1011500090568115904208F0A9C08D2F8F710E9482
:101160001D0ADD27D0628F71D82BE7C0853A910523
:1011700009F49FC0863A910509F49EC0C3E8D0E403
:10118000DCC0883A910509F49AC0893A910509F4BE
:1011900099C08A3A910509F498C08B3A910509F4EF
:1011A00097C08C3A910509F496C08B3B910509F4E0
:1011B00095C08C3B910509F494C08D3A910509F4D2
:1011C00093C0803B910509F492C08E3A910509F4D1
:1011D00091C08F3A910509F490C0813B910509F4C3
:1011E0008FC0823B910509F48EC0833B910509F4C1
:1011F0008DC0843B910509F48CC0853B910509F4B1
:101200008BC0863B910509F48AC0873B910509F4A0
:1012100089C0883B910509F488C0893B910509F490
:1012200087C08A3B910509F086C0CAE2D6E485C032
:101230000E94F207EC0181C0CE019927D3FF03C0C1
:10124000EC01D86C7AC0EC01D06C77C0DF70D06A4A
:1012500074C0DC2FCC27C16FD06A6FC090E2899F29
:10126000E001112481E090E002C0880F991F2A95C7
:10127000E2F7C82BD92BDA6860C0DC2FCC27C46F0B
:10128000D06A5BC0D82FCC27C06FD06A56C08C2FD5
:101290008F70806E90E0906A34E0D695C7953A954D
:1012A000E1F7CF709C013C2BE90147C0C0E0D0E0E2
:1012B00044C0C1E8D0E441C0C2E8D0E43EC0C2EEC0
:1012C000D4E43BC0C9EED4E438C0CAEED4E435C09F
:1012D000C5EBD4E432C0C6EBD4E42FC0C3EBD4E4F6
:1012E0002CC0C4EBD4E429C0C7EBD4E426C0CCECBA
:1012F000D4E423C0CDECD4E420C0C3E8D5E41DC0C1
:10130000CAE8D5E41AC0C2E9D5E417C0C4E9D5E4F7
:1013100014C0C1E2D6E411C0C3E2D6E40EC0C4E2F8
:10132000D6E40BC0C5E2D6E408C0C6E2D6E405C0E8
:10133000C7E2D6E402C0C0E0D4E4CE01DF91CF9191
:1013400008958238910549F1B0F48133910509F48B
:1013500059C048F48932910509F44FC08A32910589
:1013600009F455C008958533910509F441C08933C6
:10137000910599F00895833E910531F138F4803E4E
:10138000910591F0823E9105A9F00895863E910560
:1013900001F1873E910539F1089520918B0220FDDE
:1013A0003BC021FD39C0089580918B0280FF34C07D
:1013B00089E341C080918B0282FF32C080918B0211
:1013C00084FF2CC080E037C080918B0282FD28C052
:1013D000F5CF80918B0283FF25C080918B0284FD25
:1013E000F1CF87EE28C080918B0283FD1BC0F5CF23
:1013F00080918B0285FF18C019C080918B0285FFF8
:1014000015C012C080918B0286FF12C013C080915C
:101410008B0286FF0FC00CC080EE0DC083EE0BC0A8
:1014200082EE09C086EE07C085E305C089E203C0ED
:1014300081E301C08AE290E0089590918B0292FFCF
:101440000DC0282F2871283019F4877F846006C0CA
:10145000282F2471243011F48B7F886093FF0DC0F6
:10146000282F2871283119F4877E846106C0282F1F
:101470002471243111F48B7E886194FD877E089558
:101480000895CF93DF93EC01FB018281811102C0AB
:1014900081E040C08091A001811125C0C631DC45AA
:1014A000B9F70E94400A81E08093A0010E943D1894
:1014B00090939F0180939E01109293011092950149
:1014C0001092940110929701109296011092990136
:1014D0001092980110929B0110929A0110929D0116
:1014E00010929C0116C080919E0190919F010E94D4
:1014F00049188C32914060F680919301E82FF0E01A
:10150000EE0FFF1FEC56FE4FD183C0838F5F809399
:10151000930180E0DF91CF910895CF93DF93EC01A9
:10152000C13080E8D807C8F0FB0182818823A9F088
:101530008091A101811109C08CE090E00E949F235D
:101540000E94B10A81E08093A1010E94B80ACE01F5
:101550009F770E94800B0E94340B81E0DF91CF9136
:1015600008958093A201682F8CE090E00C94AD2345
:10157000E0910201F091030180818093840281FF58
:1015800003C081EE0E948B0D8091840285FF03C011
:1015900085EE0E948B0D8091840280FF03C080EE57
:1015A0000E948B0D8091840284FF03C084EE0E9410
:1015B0008B0D8091840282FF03C082EE0E948B0D0E
:1015C0008091840286FF03C086EE0E948B0D80917D
:1015D000840283FF03C083EE0E948B0D80918402FE
:1015E00087FF03C087EE0E948B0D8091A20182309D
:1015F00001F1A8F48823C9F0813079F580EE0E94CA
:10160000E70C81EE0E94E70C88E10E94E70C88E17C
:101610000E948B0D81EE0E948B0D80EE1CC08430E9
:1016200081F08530D1F486EE01C082EE0E94E70C95
:1016300014C082EE0E94E70C87E50E94E70C87E564
:101640000AC086EE0E94E70C86EE0E948B0D88E1B0
:101650000E94E70C88E10E948B0D8FE39CE90197C3
:10166000F1F700C0000008958091A201813049F097
:1016700030F0823021F0853051F486EE06C082EEE3
:1016800004C08CE20E94E70C8CE20E948B0D8091DA
:10169000840281FF03C081EE0E94E70C80918402E6
:1016A00085FF03C085EE0E94E70C8091840280FFD5
:1016B00003C080EE0E94E70C8091840284FF03C087
:1016C00084EE0E94E70C8091840282FF03C082EEC8
:1016D0000E94E70C8091840286FF03C086EE0E9480
:1016E000E70C8091840283FF03C083EE0E94E70C25
:1016F0008091840287FF03C087EE0C94E70C089565
:10170000FF920F931F93CF93DF938C01CCE0D0E037
:10171000C8010C2E02C0969587950A94E2F7282FEF
:101720002F70F22E822F0E94C9070E94E70C8F2D86
:101730000E94C9070E948B0D2497CC3F8FEFD807DA
:1017400039F7DF91CF911F910F91FF9008959093FA
:10175000A8018093A7010895E091A701F091A80145
:10176000309721F00190F081E02D099480E00895F8
:10177000E091A701F091A801309721F00280F38158
:10178000E02D09940895E091A701F091A801309708
:1017900021F00480F581E02D099408952091A501A0
:1017A0003091A6018217930771F09093A601809360
:1017B000A501E091A701F091A801309721F00680E2
:1017C000F781E02D099408952091A3013091A4019F
:1017D0008217930771F09093A4018093A301E09185
:1017E000A701F091A801309721F00084F185E02D48
:1017F0000994089508950C94FA0B81E008950E94CD
:10180000341885B7806885BF85B7806885BF0E941A
:101810005E030C940E19CF92DF92EF92FF920F931A
:101820001F93CF93DF93CDB7DEB72B970FB6F89406
:10183000DEBF0FBECDBF0E94D1030E94FD0B811100
:1018400011C08FEF89838A831B820E943D188160BB
:10185000782F9D838C8349815A816B818D810E9471
:10186000B30C56C03AEAE32E31E0F32E00E010E06C
:10187000C02E802F0E943A04F701D1907F01D82614
:1018800031F40F5F1F4F0E30110591F7DACF9091B1
:10189000550291FF04C08B870E9440048B8520E095
:1018A00030E04D2D50E0922FBA01022E02C0759506
:1018B00067950A94E2F760FF25C02E83CF82EE245D
:1018C000E394F12C02C0EE0CFF1C9A95E2F790E035
:1018D0008E219F2121E0892B09F420E028870E9496
:1018E0003D188160782F9A8789874E815F8168854E
:1018F0008A850E94B30CF801E655FE4F80818E2543
:10190000808306C02F5F3F4F2630310561F6B9CF87
:101910000E94AE1B1091A9010E94AC0B1817A1F0F8
:101920000E94AC0B8093A9012B960FB6F894DEBFF2
:101930000FBECDBFDF91CF911F910F91FF90EF9020
:10194000DF90CF900C94DA072B960FB6F894DEBF99
:101950000FBECDBFDF91CF911F910F91FF90EF9000
:10196000DF90CF900895CF93DF93CDB7DEB72B975D
:101970000FB6F894DEBF0FBECDBF4F83588769877F
:101980007A878B87DE01119686E0FD0111928A9598
:10199000E9F785E0FE01379601900D928A95E1F70F
:1019A00049815A816B817C818D819E810E9468135F
:1019B0002B960FB6F894DEBF0FBECDBFDF91CF914F
:1019C0000895FC01808191810E9425160895882345
:1019D00009F4A0C09CEF980F913A40F4682F8091D1
:1019E0000201909103010E949A170DC090E2980F96
:1019F000983058F4877091E001C0990F8A95EAF702
:101A0000892F0E94BA160C9484169BE5980F933088
:101A100070F4853A29F0863A31F482E890E005C006
:101A200081E890E002C083E890E00C94CE0B98E54A
:101A3000980F953108F06EC0883A61F1893A69F1E2
:101A40008A3A71F18B3A79F18C3A81F18B3B89F1C9
:101A50008C3B91F18D3A99F1803BA1F18E3AA9F13D
:101A60008F3AB1F1813BB9F1823BC1F1833BC9F1BE
:101A7000843BD1F1853BD9F1863BE1F1873BE9F12C
:101A8000883BF1F1893BF9F18A3B09F03FC08AE2DA
:101A900092E03EC082EE90E03BC089EE90E038C01C
:101AA0008AEE90E035C085EB90E032C086EB90E0A6
:101AB0002FC083EB90E02CC084EB90E029C087EB33
:101AC00090E026C08CEC90E023C08DEC90E020C02C
:101AD00083E891E01DC08AE891E01AC082E991E0B4
:101AE00017C084E991E014C081E292E011C083E262
:101AF00092E00EC084E292E00BC085E292E008C062
:101B000086E292E005C087E292E002C080E090E0C9
:101B10000C94E40B0895882351F19CEF980F913AAF
:101B200040F4682F80910201909103010E94A51753
:101B30000DC090E2980F983058F4877091E001C082
:101B4000990F8A95EAF7892F0E94C0160C94841683
:101B50009BE5980F933020F480E090E00C94CE0B3E
:101B6000885A853120F480E090E00C94E40B0895CD
:101B7000882321F00E94BA160C94841608958823B5
:101B800021F00E94C0160C94841608958F929F92A3
:101B9000BF92CF92DF92EF92FF920F931F93CF935A
:101BA000DF9300D0CDB7DEB74C01472FFC01C580D5
:101BB000C2949FE0C922D280DD2031F079836A830C
:101BC0000E94D7166A81498149836A830E947D16E3
:101BD00049816A81882389F0DD2079F080E2860FCF
:101BE000883058F082E00E9466160E947D16BB2461
:101BF000B394B82649816A8101C0B12CE42EE294E5
:101C00008FE0E822F12CF701E159FF4F0C94852376
:101C1000842F807F142F1F70882311F01295107F5E
:101C2000DD20C1F0112309F4D6C180E2860F88308F
:101C300010F0611105C0812F6A830E94BA1604C09A
:101C4000812F6A830E94CA166A816A830E94841661
:101C50006A81C1C1862F6A830E948B0D6A8111231C
:101C600009F4DAC180E2860F883010F0611104C0F7
:101C7000812F0E94C01603C0812F0E94D0160E949F
:101C80008416CAC1842F807F142F1F70803211F0F8
:101C90001295107F662319F06130D9F024C0DD2041
:101CA00079F0CC2049F0F1E0CF1206C00E94F01686
:101CB000812B0E94EA16B0C10E94F016812B42C10E
:101CC000CC2021F021E0C21609F4A6C10E94ED1635
:101CD0003EC1DD2029F081E08C1508F49DC131C1A1
:101CE000C1109AC134C1DD2021F0CC2009F429C1F2
:101CF00072C1CC2009F42BC17FC1242F26952695D3
:101D0000237030E02115310521F02130310561F0DB
:101D100083C1DD2021F0862F942F937002C080E0D4
:101D200090E00E94CE0B88C1DD2021F0862F942FF9
:101D3000937002C080E090E00E94E40B7DC1DD2042
:101D4000F9F0653F51F0663F71F0643FA9F480916E
:101D500085029091860281600BC0809185029091EE
:101D60008602826005C0809185029091860284601F
:101D70009093860280938502862F0E94B61A22C015
:101D8000653F51F0663F91F0643FC9F48091850250
:101D9000909186028E7F05C0809185029091860287
:101DA0008D7F909386028093850209C020918502E1
:101DB000309186022B7F3093860220938502862FF6
:101DC0000E941E1B0E94A31B37C1842F837009F041
:101DD0004EC0D1102DC1262F229526952770220F97
:101DE000220F862F8F70C82ED12CE12CF12C022EC1
:101DF00004C0CC0CDD1CEE1CFF1C0A94D2F764FF5F
:101E000010C06FE070E080E090E004C0660F771FC4
:101E1000881F991F2A95D2F76095709580959095A7
:101E200003C060E070E0CB01242F26952695237037
:101E300030E02230310569F02330310589F06C291A
:101E40007D298E299F292130310571F00E94B71418
:101E5000EFC06C297D298E299F290E94C914E8C0F2
:101E60000E94B714C701B6010E94A514E1C0DD208D
:101E700019F0842F817001C08695882309F4D8C099
:101E8000262F229526952770220F220F862F8F70DE
:101E9000C82ED12CE12CF12C022E04C0CC0CDD1C60
:101EA000EE1CFF1C0A94D2F764FF10C06FE070E0D4
:101EB00080E090E004C0660F771F881F991F2A9565
:101EC000D2F7609570958095909503C060E070E0C2
:101ED000CB01242F26952695237030E02230310542
:101EE00069F02330310589F06C297D298E299F29DD
:101EF0002130310571F00E9464159AC06C297D294A
:101F00008E299F290E94761593C00E946415C701EF
:101F1000B6010E9452158CC0062F10E0F801E05E59
:101F2000F109E531F10508F052C0E158FF4F0C947A
:101F30008523162F1F70842F8F71DD2031F00E94B2
:101F4000FD14812F0E94B80D67C00E941815812FC3
:101F50000E94BF0D61C0DD2039F0C1105DC0842F2B
:101F60008F710E94371558C091E09C1508F454C039
:101F7000F6CFDD2039F0842F8F710E94FD144CC004
:101F8000DD20C9F3842F8F710E94181545C0DD2014
:101F900029F0842F8F710E94EE143EC00E94E91434
:101FA0003BC0DD2051F0142F1F71812F0E94FD14C2
:101FB00063E0812F0E945D162FC081E00E946616AB
:101FC000E1E0EC1548F582E00E94661625C0DD20B0
:101FD00031F0CC2081F2862F0E94E70C1DC0CC206E
:101FE00089F2693349F4FFEF27EE83E0F150204096
:101FF0008040E1F700C00000862F0E948B0D0CC0CE
:102000004F70C4010E94DC070E94151415C04F7068
:10201000C4010E94DF0710C098E0E916F10441F006
:102020005CF0FAE0EF1AF10822E0E216F10420F485
:102030000E94AC0B0E94DA07BB20F1F00E945916F7
:1020400080FD1AC0F40112820E9453160E94FD14F2
:10205000C4010E944A100E9453160F900F90DF9106
:10206000CF911F910F91FF90EF90DF90CF90BF9095
:102070009F908F900C9418150F900F90DF91CF9137
:102080001F910F91FF90EF90DF90CF90BF909F90A6
:102090008F9008950F931F93CF93DF93EC012881C6
:1020A00039818B819C81892B31F03F3F11F080E099
:1020B00003C02F3FE1F781E0811113C0CE010E94E0
:1020C0001206882371F0688179818A810E94301616
:1020D0008C010E9488150E94A214B801CE010E94B2
:1020E000C60DDF91CF911F910F9108950E94D716D1
:1020F0000E94E71680910201909103010E94B0179F
:102100000E9484160E94421C0E94A31B80E090E063
:102110000E94CE0B80E090E00C94E40B0E94C71666
:102120000C9476100E942516E92FE295EF70F0E0EE
:102130003297EE30F105B8F4EC56FF4F0C9485233E
:10214000803F59F018F4803E70F407C0843F59F482
:1021500004C0803E10F0813F31F481E0089593FB8C
:10216000882780F9089580E00895CF93DF9300D009
:1021700000D01F92CDB7DEB70F900F900F900F9049
:102180000F90DF91CF910895CF93DF9300D000D0CF
:1021900000D0CDB7DEB726960FB6F894DEBF0FBEDF
:1021A000CDBFDF91CF9108951F93CF93DF93C0915F
:1021B000B90116E08091BA01C81799F0D0E01C9FD0
:1021C000F0011D9FF00D1124E554FE4F4081518117
:1021D00062817381848195810E94C4102196C770A9
:1021E000E9CFDF91CF911F9108954091EB0150917C
:1021F000EC016091ED017091EE018091EF01909101
:10220000F0010C94C410CF938091F00182958F70EF
:1022100009F05FC08091ED01882309F45AC0209134
:10222000B901A091BA016091EB017091EC0180912C
:10223000EE019091EF0131E06F3F09F030E0B32FF4
:10224000C6E02A1709F445C0009721F07F3F21F42A
:102250004B2F03C041E001C040E030E040FD35C0FD
:10226000C29FF001C39FF00D1124E554FE4F418140
:1022700074132BC04081641328C04281411125C0D2
:10228000438154814817590710F441505109481BA4
:10229000590B483C5105C8F48091F0018F70806162
:1022A0008093F00186E0829FF001839FF00D11245E
:1022B000E054FE4F80818F70806180838BEE91E0CF
:1022C0000E944A10CF910C94D4102F5F3F4F27707B
:1022D000B8CFCF910895CF92DF92EF92FF920F93F4
:1022E0001F93CF93DF93CDB7DEB762970FB6F89405
:1022F000DEBF0FBECDBF8C0185E0F801DE011D966B
:1023000001900D928A95E1F7D8014C9111965C915C
:10231000119712966C9112971396ED90FC9014976A
:102320007091EB01E091EC012091EE013091EF0111
:102330002115310531F0EF3F31F481E07F3F19F491
:1023400003C081E001C080E0B82FB170CB2E80FDCA
:102350006BC1D090ED01DD2009F4F5C0F091F001E2
:10236000E216F30638F0C701821B930B883C9105F7
:1023700048F09DC0209530952E0D3F1D283C31051D
:1023800008F095C08F2F807F09F052C0E51314C06C
:10239000741312C0D62E61110FC0FF70F061F0935C
:1023A000F0010E94F5108BEE91E00E944A1080919E
:1023B000F001F80185837CC1EF2831F05F3F31F4F3
:1023C00081E04F3F19F403C081E001C080E080FD4F
:1023D00003C081E0862701C080E0F82FF170FF2E56
:1023E00080FF1CC08091B9012091BA0136E08217AC
:1023F00009F438C190E0389FF001399FF00D1124A5
:10240000E554FE4F7181571306C07081471303C016
:102410007281671303C001968770E9CFD62E6623B9
:1024200009F446C18091F00181608093F00155C0AC
:10243000E51308C0741306C0611104C0D8011596D5
:10244000FC93AEC04D875E878D859E856A8B0E940A
:1024500092106A89882329F1D62E662311F12091E2
:10246000F001822F82958F7090E002970CF462C089
:102470008091EB019091EC0198878F831986FB8600
:10248000EA862C87CE01079653C0E51741F14D87A8
:102490005E878D859E856A8B0E9492106A89811164
:1024A00030C0C8010E944A10DD24D39401C18F2F8F
:1024B000807F59F77E2DF98AE88A89890E94B510B4
:1024C0008BEE91E00E944A10EBEEF1E086E0DF0136
:1024D0001D928A95E9F70E94F510D12CE9C074137A
:1024E000D6CF6111D4CFD8011596FC93C8010E94B4
:1024F0004A10EBEEF1E086E0DF011D928A95E9F7E4
:10250000D7C0D62E662369F22091F001822F8295E2
:102510008F7090E0029774F08091EB019091EC0144
:102520009A8389831B82FD82EC822E83CE010196E1
:102530000E944A1086E0F801ABEEB1E001900D92E6
:102540008A95E1F78AC0E216F30628F0C701821BDC
:10255000930B9C0104C0209530952E0D3F1D283C07
:10256000310508F053C0D62E662309F49ACFE5133F
:102570002CC074132AC08091F00180FD1DC0982FDB
:1025800092959F70C9F0D80115968C9315979F303E
:1025900039F09F5F9295907F8F70892B15968C9361
:1025A000C8010E944A1086E0F801ABEEB1E001904C
:1025B0000D928A95E1F753C086E0F801ABEEB1E0E9
:1025C00001900D928A95E1F773C04D875E878D85E6
:1025D0009E850E949210882381F096E0F801ABEE70
:1025E000B1E001900D929A95E1F78A8B0E94031158
:1025F0000E94F5108A89D82E5BC08091F00181601D
:102600008093F001C8010E944A1052C07E2DF98AC1
:10261000E88A89890E94B510EBEEF1E086E0DF01DF
:102620001D928A95E9F71BC0662309F43ACF4D87BE
:102630005E878D859E850E949210D82E882309F48E
:1026400030CF86E0F801ABEEB1E001900D928A95B3
:10265000E1F78BEE91E00E94E10C0E9403110E94D1
:10266000F51026C04D875E878D859E850E942516B4
:10267000292F22952F7030E0223031052CF49F70E5
:1026800041F0811106C00CC0243031052CF49F703C
:1026900049F4805E883020F0C8010E944A10CF2C97
:1026A000DC2C06C0D80115969C91907F91F7F8CF4D
:1026B0008D2D62960FB6F894DEBF0FBECDBFDF91B1
:1026C000CF911F910F91FF90EF90DF90CF900895E1
:1026D0001F93CF93DF93CDB7DEB72C970FB6F89447
:1026E000DEBF0FBECDBF4F83588769877A878B8740
:1026F0009C87CE0107960E946B118823C1F02F8121
:1027000038858A859B85892B31F03F3F11F080E029
:1027100003C02F3FE1F781E0811147C04F81588509
:1027200069857A858B859C850E94C4103EC086E0B1
:10273000FE013796DE01119601900D928A95E1F720
:10274000FF81E8854A855B854115510531F0EF3FF2
:1027500031F481E0FF3F19F403C081E001C080E063
:1027600080FD23C02091BA0130E0C9010196877035
:1027700099276091B90170E086179707F1F1F98305
:10278000EA835D834C8396E0929FD001939FB00DC6
:102790001124A554BE4FFE01319601900D929A95D9
:1027A000E1F78093BA010E94D41016E08091B9013C
:1027B0009091BA01891779F1189FC00111248554AD
:1027C0009E4F0E946B11882331F1E091B9011E9F49
:1027D000F0011124E554FE4F4081518162817381E3
:1027E000848195810E94C4108091B90190E0019686
:1027F000877099278093B901D9CF0E948E101092CB
:10280000BA011092B901EBEEF1E086E0DF011D9212
:102810008A95E9F7CACF2C960FB6F894DEBF0FBEA3
:10282000CDBFDF91CF911F910895EF92FF920F934B
:102830001F93CF93DF93FC01009709F46FC0F12C35
:10284000EE24E394EF0121968491843740F48430A0
:1028500008F055C0813081F0823021F15FC08537AA
:1028600009F447C0C0F19CE7980F903708F056C0B4
:102870008F770E948B0D45C08F010E5F1F4FFE01A9
:10288000849190E2980F983050F48770FE2D01C02B
:10289000FF0F8A95EAF78F2F0E94DA1615C00E9463
:1028A000E70C14C08F010E5F1F4FFE01849190E270
:1028B000980F983068F48770FE2D01C0FF0F8A953D
:1028C000EAF78F2F0E94E0160E948416E80119C0D3
:1028D0000E948B0DFBCFCF010296FE01C491CC2349
:1028E00061F0EFE9FFE03197F1F700C00000C1505F
:1028F000F6CFCF010296FE01F490EC0102C00E94D7
:10290000E70C8F2D882341F0EFE9FFE03197F1F7D5
:1029100000C000008150F6CFFE0194CFDF91CF912F
:102920001F910F91FF90EF90089508950E949514C4
:1029300060932C0270932D0280932E0290932F02AD
:102940000C94761008950C9496140F931F93009195
:102950002C0210912D0220912E0230912F02602B1B
:10296000712B822B932B1F910F910C9496140F9324
:102970001F9300912C0210912D0220912E02309174
:102980002F0260237123822393231F910F910C94B4
:1029900096140F931F9300912C0210912D022091F9
:1029A0002E0230912F0260277127822793271F91D3
:1029B0000F910C9496140C94FD050E94DB14609307
:1029C00028027093290280932A0290932B020C9480
:1029D000761060E070E0CB010C94DD1441E050E033
:1029E00060E070E004C0440F551F661F771F8A9592
:1029F000D2F7CB01BA010C94DD1441E050E060E065
:102A000070E004C0440F551F661F771F8A95D2F7E8
:102A10008091280290912902A0912A02B0912B0264
:102A2000482B592B6A2B7B2BCB01BA010C94DD145C
:102A300041E050E060E070E004C0440F551F661FA5
:102A4000771F8A95D2F74095509560957095809143
:102A5000280290912902A0912A02B0912B024823CA
:102A600059236A237B23CB01BA010C94DD1441E086
:102A700050E060E070E004C0440F551F661F771FF0
:102A80008A95D2F78091280290912902A0912A027A
:102A9000B0912B02482759276A277B27CB01BA011F
:102AA0000C94DD140F931F930091280210912902BA
:102AB00020912A0230912B02602B712B822B932BB9
:102AC0001F910F910C94DD140F931F930091280216
:102AD0001091290220912A0230912B026023712348
:102AE000822393231F910F910C94DD140F931F9356
:102AF000009128021091290220912A0230912B0284
:102B000060277127822793271F910F910C94DD1462
:102B10000895292F220F290F220F280F422F4695A3
:102B2000469546952770B1E001C0BB0F2A95EAF79C
:102B300085E0489FA00111244F505E4F80E090E057
:102B400070E0FA01E80FF91FA0819B01082E02C076
:102B5000369527950A94E2F72170332721952A2785
:102B60002B232A27208301968530910551F708955C
:102B7000292F220F290F220F280F622F66956695A5
:102B80006695922F977085E0689FB00111246F5071
:102B90007E4F40E050E080E0FB01E40FF51F208114
:102BA00030E0092E02C0369527950A94E2F721708D
:102BB0003327042E01C0220F0A94EAF7822B4F5FBD
:102BC0005F4F4530510541F70895CF92DF92EF9264
:102BD000FF920F931F93CF93DF93EC01C0902C02D1
:102BE000D0902D02E0902E02F0902F0280912802CA
:102BF00090912902A0912A02B0912B02C82AD92AC9
:102C0000EA2AFB2A0FE110E0B701A601002E04C05A
:102C100076956795579547950A94D2F740FD05C07C
:102C20000150110988F780E007C0BE01802F0E9483
:102C3000FA070197A9F3802FDF91CF911F910F9190
:102C4000FF90EF90DF90CF900895CF93DF93EC014A
:102C50000E94E515BE010E94FA07DF91CF91089509
:102C60001F93CF93DF93EB019091B801992321F04B
:102C7000CB010E94251613C0882349F0CB010E9486
:102C8000E515182F682FCE010E94891504C0CB01CD
:102C90000E94B815182FBE01812F0E94FA07DF91FC
:102CA000CF911F91089580913002859585958595E6
:102CB0000895809130028770089598E0899F90016F
:102CC0001124622B609330020C94FD144091300269
:102CD0008095842380933002982F977069F450E098
:102CE000282F332727FD30954217530729F0859564
:102CF000859585950C9418150895909130029770DC
:102D000081E009F480E00895E0910201F09103016F
:102D1000809154028083E0910201F091030180814F
:102D200090915302892B8083E0910201F09103017D
:102D3000808190915202892B808390913102992356
:102D400081F0E0910201F09103018081892B808361
:102D500080910201909103010E943317811110921A
:102D6000310280910201909103010C94B80B809183
:102D70005402089590915402982B90935402089510
:102D80008095909154029823909354020895109244
:102D90005402089590915302982B909353020895F2
:102DA0008095909153029823909353020895109226
:102DB0005302089590915202982B909352020895D5
:102DC0008095909152029823909352020895109208
:102DD00052020895809331020895109231020895AD
:102DE0008091310208956DEE7EEF80E090E00E94C8
:102DF000BF2360E082E090E00E94AD2360E083E0CA
:102E000090E00E94AD2360E084E090E00E94AD235A
:102E100060E085E090E00C94AD2380E090E00E94BB
:102E2000A72321E08D3E9E4F09F020E0822F0895D8
:102E300082E090E00C949F23682F82E090E00C9455
:102E4000AD2383E090E00C949F23682F83E090E013
:102E50000C94AD2384E090E00C949F23682F84E0D1
:102E600090E00C94AD2320E030E040E0FC01E20F64
:102E7000F31F518151114F5F2F5F3F4F2F313105AC
:102E8000A9F7842F089520E030E04FEFFC01E20F16
:102E9000F31F5281561799F04F3F19F4511101C099
:102EA000422F2F5F3F4F2E31310581F74F3F39F0D1
:102EB000FC01E40FF11D47FDFA9562830895089522
:102EC00020E030E0FC01E20FF31F4281461301C015
:102ED00012822F5F3F4F2E313105A1F70895262F23
:102EE0002695269526952F3170F4FC01E20FF11DF1
:102EF000677021E030E0062E01C0220F0A94EAF745
:102F00008181822B81830895262F269526952695EB
:102F10002F3178F4FC01E20FF11D677021E030E001
:102F2000062E01C0220F0A94EAF7209581812823FA
:102F30002183089520911301222329F020918B02EF
:102F400027FD0C946F170C94431720911301222333
:102F500029F020918B0227FD0C9484170C946017A4
:102F600020E030E0FC01E20FF31F11822F5F3F4FA2
:102F70002F313105B9F7089508950C94BC1780914D
:102F80009102843031F11092560220E488E190E001
:102F90000FB6F894A895809360000FBE2093600050
:102FA00080E00E94DA070E94BD1783B7817F8460AA
:102FB00083BF83B7816083BF7894889583B78E7F02
:102FC00083BF88E10FB6F894809360001092600090
:102FD0000FBE08950895CF930E9480030E94D103ED
:102FE0000E94EA17C0E08C2F0E943A04811105C0AC
:102FF000CF5FCE30C1F780E001C081E0CF9108956E
:1030000008950C9400180E948E100E94AC0B0E9430
:10301000DA070C9401181F920F920FB60F92112429
:103020008F939F93AF93BF9380915602811113C0EA
:103030008091870290918802A0918902B0918A02C2
:103040004196A11DB11D8093870290938802A093A1
:103050008902B0938A02BF91AF919F918F910F9097
:103060000FBE0F901F90189582E084BD93E095BD30
:103070009AEF97BD80936E0008952FB7F8948091D2
:10308000870290918802A0918902B0918A022FBF95
:103090000895CF92DF92EF92FF920F931F932FB775
:1030A000F894409187025091880260918902709152
:1030B0008A022FBF6A017B01EE24FF248C0120E0ED
:1030C00030E0C016D106E206F30610F44150510973
:1030D000481B590BCA011F910F91FF90EF90DF9091
:1030E000CF90089578941F920F920FB60F921124EB
:1030F0008F939F93AF93BF938091870290918802A3
:10310000A0918902B0918A020196A11DB11D809300
:10311000870290938802A0938902B0938A02BF919C
:10312000AF919F918F910F900FBE0F901F901895A8
:10313000F89481E08093E00080E28093D8001092C0
:10314000C9008FE19EE40197F1F700C000001DBAAD
:10315000109268001CBC10BE1FBA10927A00109228
:103160006E0010926F001092710010927200109217
:10317000C900ECEBF0E0108214B817B81AB81DB80B
:1031800010BA108215B818B81BB81EB811BA0C9432
:10319000003F0895DF92EF92FF920F931F93CF931A
:1031A000DF93D12C082F10E08D2D0E943A04C0E04F
:1031B000D0E0E82EF12C97010C2E02C03595279512
:1031C0000A94E2F720FD05C02196C630D10599F793
:1031D0000AC06C2F7D2D80E00E94E00708171907B8
:1031E00099F781E005C0D3948EE0D812DDCF80E05E
:1031F000DF91CF911F910F91FF90EF90DF90089595
:10320000CF93C82F89E20E94CA18882321F08C2FFF
:10321000CF910C94CA1880E0CF910895CF930E946B
:103220000D17811102C00E94F316C5E6C15049F086
:103230000E94D1038FE39CE90197F1F700C00000E1
:10324000F5CF8CE20E94001981110DC18AE20E9423
:10325000001981110E94F31685E00E940019811166
:103260000E9498180E9418178093550287E00E94C8
:103270000019882399F18BE10E940019882351F0ED
:103280009091550291FB882780F921E0822780FBED
:1032900091F922C08EE00E940019882351F090918C
:1032A000550292FB882780F921E0822780FB92F962
:1032B00013C080E10E94001990915502882341F0CB
:1032C00093FB882780F921E0822780FB93F904C0D3
:1032D000892F809580FB90F990935502809155023B
:1032E0000E941C170E942A1790E090938C028093F2
:1032F0008B0280EE0E940019882341F080918B029E
:10330000982F909590FB80F980938B0289E30E941F
:103310000019882359F090918B0291FB882780F93E
:1033200021E0822780FB91F990938B0282EE0E942C
:103330000019882359F090918B0292FB882780F91D
:1033400021E0822780FB92F990938B0286EE0E9407
:103350000019882359F090918B0293FB882780F9FC
:1033600021E0822780FB93F990938B0283EE0E94E9
:103370000019882359F090918B0294FB882780F9DB
:1033800021E0822780FB94F990938B0285E30E94D1
:103390000019882359F090918B0295FB882780F9BA
:1033A00021E0822780FB95F990938B0281E30E94B4
:1033B0000019882359F090918B0296FB882780F999
:1033C00021E0822780FB96F990938B0281E10E9495
:1033D0000019882359F090918B0297FB882780F978
:1033E00021E0822780FB97F990938B0280918B02DA
:1033F0000E942E1787E20E940019C82F8EE10E94BA
:1034000000198111C2608FE10E9400198111C4600E
:1034100080E20E9400198111C86081E20E940019B7
:103420008111C06182E20E9400198111C06283E2B1
:103430000E9400198111C06484E20E94001988234F
:1034400011F0C06802C0CC2329F08C2F0E942517F0
:103450006C2F03C00E942117682F70E080E090E07D
:10346000CF910C94A314CF91089580915A0280FFBC
:103470000BC06091070185E0689FB001112475952C
:103480006795759567952AC081FF09C0609107010E
:1034900085E0689FB0011124759567951FC082FF74
:1034A00007C06091070185E0689FB001112416C034
:1034B00040915B024423C9F060910601461788F7EA
:1034C0002091070185E0289F90011124429FC001AF
:1034D000439F900D112470E00E94712360387105A4
:1034E00040F46115710539F002C065E070E0862F87
:1034F00008958FE7089581E0089580915A0280FF32
:1035000008C06091050170E07595679575956795A0
:1035100021C081FF06C06091050170E07595679537
:1035200019C082FF04C06091050170E010C0809155
:103530005B028823C1F0609104018617A0F7909187
:103540000501989FC001112470E00E94712360382A
:10355000710528F46115710521F0862F08958FE714
:10356000089581E0089561E070E0F4CF803F21F498
:103570000E94351A819504C0813F29F40E94351AB2
:1035800080935E020895823F21F40E94351A81954E
:1035900004C0833F29F40E94351A80935D02089588
:1035A000893F19F40E947D1A05C08A3F31F40E94B8
:1035B0007D1A819580935F0208958B3F21F40E94CC
:1035C0007D1A819504C08C3F29F40E947D1A809356
:1035D00060020895843F21F480915C02816017C0ED
:1035E000853F21F480915C02826011C0863F21F406
:1035F00080915C0284600BC0873F21F480915C0263
:10360000886005C0883F31F480915C0280618093BE
:103610005C0208958D3F21F480915A0281600BC0B5
:103620008E3F21F480915A02826005C08F3F29F4B9
:1036300080915A02846080935A020895803F39F441
:1036400080915E0287FF6CC010925E0269C0813F6C
:1036500029F480915E021816BCF362C090915D025D
:10366000823F29F497FF5CC010925D0259C0833FEE
:1036700019F41916CCF354C0893F41F480915F02CC
:1036800018160CF04DC010925F024AC08A3F29F410
:1036900080915F0287FF44C0F6CF8B3F39F4809161
:1036A000600287FF3DC0109260023AC08C3F29F44F
:1036B000809160021816BCF333C0843F21F48091DE
:1036C0005C028E7F17C0853F21F480915C028D7F64
:1036D00011C0863F21F480915C028B7F0BC0873F35
:1036E00021F480915C02877F05C0883F31F480918E
:1036F0005C028F7E80935C0213C08D3F21F4809129
:103700005A028E7F0BC08E3F21F480915A028D7F2A
:1037100005C08F3F29F480915A028B7F80935A0213
:1037200080915D0281110EC080915E0281110AC0FC
:1037300080915F02811106C080916002811102C0F8
:1037400010925B0208958CE592E00E94C30B0E94E8
:103750003D18909358028093570208951F93CF937A
:10376000DF9380915702909158020E94491840912E
:103770005B02442321F02091080130E006C0209133
:1037800059025AE0259F900111248217930708F4EB
:1037900075C080915D0210915E02D0915F02C09170
:1037A0006002811107C0111105C0D11103C0CC23E3
:1037B00009F464C04F3F19F04F5F40935B02181645
:1037C00024F40E94351A80935D0280915D0287FF88
:1037D00005C00E94351A819580935D02111624F46C
:1037E0000E94351A80935E0280915E0287FF05C0B9
:1037F0000E94351A819580935E0220915D022223FA
:10380000D1F040915E024423B1F055EB25039001C5
:103810001124311102C081E001C0832F80935D0229
:1038200025EB4203C0011124911102C081E001C0C7
:10383000892F80935E021D1624F40E947D1A8093C6
:103840005F0280915F0287FF05C00E947D1A81950B
:1038500080935F021C1624F40E947D1A80936002FC
:103860008091600287FF05C00E947D1A8195809338
:103870006002DF91CF911F910C94A31BDF91CF9138
:103880001F910895ECE5F2E085E0DF011D928A9535
:10389000E9F710925B0210925A020895809181021A
:1038A00008950F931F93CF93DF9300D01F92CDB74E
:1038B000DEB78C010E94C51E823011F0843019F5EC
:1038C00083E089831B830A838093E9008FEF9091C3
:1038D000E800815095FD06C095ED9A95F1F700003E
:1038E0008111F5CF8091E80085FF0DC040E050E0E8
:1038F00063E070E0CE0101960E94E21E8091E80034
:103900008E778093E8000F900F900F90DF91CF910A
:103910001F910F910895CF93DF9300D01F92CDB7E1
:10392000DEB720919102243031F522E029838058BE
:1039300091099B838A8383E08093E9008FEF9091C4
:10394000E800815095FD06C095ED9A95F1F70000CD
:103950008111F5CF8091E80085FF0DC040E050E077
:1039600063E070E0CE0101960E94E21E8091E800C3
:103970008E778093E8000F900F900F90DF91CF919A
:103980000895CF93DF93EC010E94C51E823011F0A1
:103990008430F9F482E08093E9008FEF9091E800A1
:1039A000815095FD06C095ED9A95F1F700008111C3
:1039B000F5CF8091E80085FF0CC040E050E065E065
:1039C00070E0CE010E94E21E8091E8008E77809325
:1039D000E800DF91CF910895CF93DF93EC010E942F
:1039E000C51E823019F0843009F047C08091130160
:1039F0008823E1F080918B0287FF18C084E08093D8
:103A0000E9008FEF9091E800815095FD06C095E1A7
:103A10009A95F1F700008111F5CF8091E80085FFBC
:103A20002CC040E050E060E270E017C081E080937D
:103A3000E9008FEF9091E800815095FD06C095ED6B
:103A40009A95F1F700008111F5CF8091E80085FF8C
:103A500014C040E050E068E070E0CE010E94E21E39
:103A60008091E8008E778093E80080E2FE01A1E675
:103A7000B2E001900D928A95E1F7DF91CF91089520
:103A800080919002811109C00E9474200E94D1206F
:103A90008091E20084608093E20008951092900289
:103AA0000895089508950C94031842E061EC81E0B4
:103AB0000E94EE1F42E061EC82E00E94EE1F42E0B5
:103AC00061EC83E00E94EE1F42E261EC84E00C9422
:103AD000EE1F80919302833009F455C030F4813099
:103AE00071F0823009F48EC008958A3009F47AC0EA
:103AF0008B3009F460C0893009F09CC020C08091EF
:103B00009202813A09F096C08091E800877F809305
:103B1000E8008091960290919702892B21F060E055
:103B200080E090E003C060E281E692E070E00E94F5
:103B30002B1F8091E8008B778093E8000895809197
:103B40009202813209F076C080919602909197029C
:103B5000009719F0039709F06DC08091E800877F06
:103B60008093E8008091E80082FD05C08091910279
:103B70008111F8CF5FC08091F10080938102809124
:103B8000E8008B7753C080919202813A09F052C0CD
:103B90008091960290919702892B09F04BC08091F9
:103BA000E800877F8093E8008091E80080FFFCCFE9
:103BB0008091130136C0809192028132D9F58091B3
:103BC000960290919702892BA9F58091E800877F52
:103BD0008093E8000E942320809194028093130137
:103BE0000C948E1080919202813221F58091E80030
:103BF000877F8093E8000E94232080919502809324
:103C00008202089580919202813AA1F48091E800A5
:103C1000877F8093E8008091E80080FFFCCF80914F
:103C200082028093F1008091E8008E778093E80013
:103C30000C942320089584B7877F84BF88E10FB652
:103C4000F89480936000109260000FBE80E880932B
:103C50006100109261000E94FB0B0E9474200E9480
:103C6000D1208091E20084608093E20078940E94E9
:103C700054230E94FF0B89E091E00E94A70B8091E2
:103C80009102853069F40E94BF1780918F028823CA
:103C9000B1F30E94EB17882391F30E94CC1EEFCF63
:103CA0000E940B0CECCF0C94551E292F3327233088
:103CB0003105A9F06CF42130310509F448C02230F7
:103CC000310509F049C08DE690E02AE833E048C0AC
:103CD00021323105F9F02232310549F13DC09927F1
:103CE0008130910571F02CF4892BB1F5E6E8F3E011
:103CF0000DC08230910541F0039771F5E0E5F3E0E6
:103D000005C0EEE6F3E002C0E6E5F3E0849190E062
:103D10009F0126C064307105F8F4FB01EE0FFF1F10
:103D2000E05EFE4F2081318189E090E019C064306F
:103D3000710590F4FB01EE0FFF1FE85EFE4F20813E
:103D40003181FB01EC5EFE4F808190E009C082E191
:103D500090E027EF33E004C080E090E020E030E026
:103D6000FA013183208308950895CF93C82F0E94CC
:103D7000B41EC0938302CF91089580919102843044
:103D800011F482E0089581E0089580918302811109
:103D900002C00C94BD1E089580E189BD82E189BDF9
:103DA00009B400FEFDCF8091D8008F7D8093D800AC
:103DB0008091E00082608093E0008091E00081FDCE
:103DC000FCCF0895CF92DF92EF92FF920F931F9353
:103DD000CF93DF937C018B01EA010E944420811183
:103DE00031C0209731F088819981081B190BE80EAA
:103DF000F91EC12CD12C0115110519F18091E80093
:103E000085FD14C08091E8008E778093E8002097AC
:103E100041F0888199818C0D9D1D9983888385E06F
:103E200011C00E944420882331F30CC0F701819116
:103E30007F018093F10001501109FFEFCF1ADF0AD3
:103E4000DACF80E0DF91CF911F910F91FF90EF903B
:103E5000DF90CF9008952091980230919902261713
:103E6000370748F06115710539F42091E8002E7785
:103E70002093E80001C0B901FC0120E06115710543
:103E8000B9F180919102882309F440C0853009F48A
:103E90003FC08091E80083FD3DC08091E80082FF33
:103EA00006C08091E80082FF26C080E008958091DE
:103EB000E80080FFE3CF2091F3008091F20090E0D2
:103EC000922B6115710551F08830910538F42191DC
:103ED0002093F100615071090196F3CF21E008971A
:103EE00009F020E08091E8008E778093E800C6CF4B
:103EF0002111C7CFD6CF80919102882339F0853028
:103F000039F08091E80083FFCCCF04C082E00895AF
:103F100083E0089581E008952091980230919902FC
:103F20002617370748F06115710539F42091E8002C
:103F30002E772093E80001C0B901FC0120E0611553
:103F40007105C1F180919102882309F441C0853047
:103F500009F440C08091E80083FD3EC08091E800F4
:103F600082FF06C08091E80082FF27C080E00895AC
:103F70008091E80080FFE3CF2091F3008091F20070
:103F800090E0922B6115710559F08830910540F44D
:103F900024912093F1003196615071090196F2CF7E
:103FA00021E0089709F020E08091E8008E77809367
:103FB000E800C5CF2111C6CFD5CF809191028823CB
:103FC00039F0853039F08091E80083FFCBCF04C011
:103FD00082E0089583E0089581E00895982F973056
:103FE00058F59093E900981739F07091EC00209102
:103FF000ED005091F00003C0242F762F50E021FFF8
:1040000019C03091EB003E7F3093EB003091ED0012
:104010003D7F3093ED003091EB0031603093EB0049
:104020007093EC002093ED005093F0002091EE008F
:1040300027FF07C09F5FD3CF8F708093E90081E097
:10404000089580E008958091920287FD05C08091D7
:10405000E80080FF0EC012C08091E80082FD05C01C
:10406000809191028111F8CF08958091E8008B77BB
:1040700008C0809191028111EACF08958091E800F3
:104080008E778093E80008958091E4009091E50098
:1040900045E62091EC0020FF21C02091E80020FDA2
:1040A00021C020919102222389F0253089F02091AE
:1040B000EB0025FD0FC02091E4003091E5002817AA
:1040C000390739F3415041F0C901E3CF82E0089547
:1040D00083E0089581E0089584E008952091E80048
:1040E00022FFDFCF80E008950E94E2200E94EA20B4
:1040F000E0EEF0E0808181608083E8EDF0E0808197
:104100008F77808319BCA7EDB0E08C918E7F8C9364
:1041100080818F7E80831092900208950F931F9369
:10412000CF93DF930E94E2200E94EA20C8EDD0E006
:1041300088818F77888388818068888388818F7D54
:10414000888319BC1092910210928D0210928F02F6
:1041500010928E0200EE10E0F80180818B7F808348
:1041600088818160888342E060E080E00E94EE1FE9
:10417000E1EEF0E080818E7F8083E2EEF0E08081EE
:1041800081608083808188608083F80180818E7F58
:104190008083888180618883DF91CF911F910F9107
:1041A0000895E8EDF0E080818F7E8083E7EDF0E018
:1041B00080818160808384E082BF81E0809390026F
:1041C0000C948E20E8EDF0E080818E7F8083109249
:1041D000E20008951092DA001092E10008951F9213
:1041E0000F920FB60F9211242F933F934F935F932B
:1041F0006F937F938F939F93AF93BF93EF93FF93AF
:104200008091E10082FF0BC08091E20082FF07C035
:104210008091E1008B7F8093E1000E945323809185
:10422000DA0080FF1FC08091D80080FF1BC0809102
:10423000DA008E7F8093DA008091D90080FF0DC074
:1042400080E189BD82E189BD09B400FEFDCF81E036
:10425000809391020E94401D05C019BC10929102EA
:104260000E944E1D8091E10080FF19C08091E20004
:1042700080FF15C08091E2008E7F8093E2008091E4
:10428000E20080618093E2008091D8008062809398
:10429000D80019BC85E0809391020E94521D809144
:1042A000E10084FF30C08091E20084FF2CC080E1F7
:1042B00089BD82E189BD09B400FEFDCF8091D8009F
:1042C0008F7D8093D8008091E1008F7E8093E10004
:1042D0008091E2008F7E8093E2008091E200816015
:1042E0008093E20080918D02882311F084E007C062
:1042F0008091E30087FF02C083E001C081E08093EA
:1043000091020E94531D8091E10083FF29C080919A
:10431000E20083FF25C08091E100877F8093E10068
:1043200082E08093910210928D028091E1008E7F55
:104330008093E1008091E2008E7F8093E200809183
:10434000E20080618093E20042E060E080E00E9451
:10435000EE1F8091F00088608093F0000E94511D54
:10436000FF91EF91BF91AF919F918F917F916F914D
:104370005F914F913F912F910F900FBE0F901F9023
:1043800018951F920F920FB60F9211242F933F93FF
:104390004F935F936F937F938F939F93AF93BF934D
:1043A000CF93EF93FF93C091E900CF708091EC0021
:1043B0001092E9008091F000877F8093F00078945C
:1043C0000E94FD211092E9008091F00088608093A6
:1043D000F000C093E900FF91EF91CF91BF91AF91B1
:1043E0009F918F917F916F915F914F913F912F910D
:1043F0000F900FBE0F901F9018951F93CF93DF93D0
:10440000CDB7DEB7AA970FB6F894DEBF0FBECDBF0B
:10441000E2E9F2E08091F100819322E0EA39F207CB
:10442000C9F70E94691D8091E80083FF24C1209193
:10443000920230919302832F90E08A30910508F028
:104440001AC1FC01EE55FF4F0C948523203821F052
:10445000223809F010C108C080918E0290918F021D
:10446000992389F082600FC0809196028F70873007
:1044700008F001C18093E9008091EB0085FB88275B
:1044800080F91092E9009091E800977F9093E800FE
:104490008093F1001092F100CCC0822F8D7F09F043
:1044A000EAC0222319F0223061F0E5C08091940225
:1044B000813009F0E0C0333009F080E080938F0252
:1044C0002AC080919402811126C0209196022F70FB
:1044D0008FEF820F863008F0CEC02093E9008091E4
:1044E000EB0080FF18C08091EB00333011F4806244
:1044F00010C080618093EB0081E090E001C0880FE4
:104500002A95EAF78093EA001092EA008091EB0086
:1045100088608093EB001092E9008091E800877F2B
:104520008093E8000E942320A6C02111A4C010910E
:1045300094021F778091E3008078812B8093E300C1
:104540008091E800877F8093E8000E94232080917B
:10455000E80080FFFCCF8091E30080688093E30057
:10456000112311F083E001C082E08093910283C0A7
:104570002058223008F07FC08091940290919502DB
:104580008C3D23E0920779F583E08A838AE2898370
:104590004FB7F894DE01139620E03EE051E2E32F9E
:1045A000F0E050935700E49120FF03C0E295EF70D4
:1045B0003F5FEF708E2F90E0EA3010F0C79601C099
:1045C000C0968D939D932F5F243149F74FBF809103
:1045D000E800877F8093E8006AE270E0CE010196F0
:1045E0000E942B1F15C06091960270919702AE0138
:1045F0004F5F5F4F0E94531E0097E9F12091E80042
:10460000277F2093E800BC0189819A810E948C1F3A
:104610008091E8008B778093E8002DC0203859F511
:104620008091E800877F8093E80080918D028093DD
:10463000F1008091E8008E7773CF21111CC090911A
:1046400094029230C0F48091E800877F8093E80064
:1046500090938D020E94232080918D02811104C0CD
:104660008091E30087FF02C084E001C081E0809375
:1046700091020E94551D8091E80083FF0AC080913D
:10468000E800877F8093E8008091EB008062809350
:10469000EB00AA960FB6F894DEBF0FBECDBFDF9138
:1046A000CF911F9108950895CF938091910288230F
:1046B000B1F08091E9008F709091EC0090FF02C002
:1046C00090E801C090E0C92FC82B1092E9008091BA
:1046D000E80083FD0E94FD21CF70C093E900CF91D7
:1046E000089597FB072E16F4009407D077FD09D0A4
:1046F0000E948B2307FC05D03EF4909581959F4F37
:104700000895709561957F4F0895EE0FFF1F0590F6
:10471000F491E02D0994AA1BBB1B51E107C0AA1F0D
:10472000BB1FA617B70710F0A61BB70B881F991F52
:104730005A95A9F780959095BC01CD010895F999F6
:10474000FECF92BD81BDF89A992780B50895A8E162
:10475000B0E042E050E00C94C723262FF999FECF39
:1047600092BD81BDF89A019700B4021639F01FBAC4
:1047700020BD0FB6F894FA9AF99A0FBE08950196E3
:10478000272F0E94AE230C94AD23DC01CB01FC014A
:10479000F999FECF06C0F2BDE1BDF89A319600B49A
:0E47A0000D9241505040B8F70895F894FFCFA5
:1047AE002000320228083C07144E1CEC1CC11C8B46
:1047BE001C511C01404D3639C504780442040904CD
:0847CE009C03B503CE03E703D1
:00000001FF
